:0400000500000A816C
:020000040000FA
:1000000000040020810A000015070000610A0000BA
:100010001F07000029070000330700000000000050
:10002000000000000000000000000000A50A000021
:100030003D070000000000004707000051070000D6
:100040005B070000650700006F07000079070000EC
:10005000830700008D07000097070000A10700003C
:10006000AB070000B5070000BF070000C90700008C
:10007000D3070000DD070000E7070000F1070000DC
:10008000FB070000050800000F0800001908000029
:10009000230800002D080000370800004108000078
:1000A0004B080000550800005F08000069080000C8
:1000B000730800007D080000870800009108000018
:1000C0009B080000A5080000AF080000B908000068
:1000D000C3080000CD080000D7080000E1080000B8
:1000E000EB080000F5080000FF0800000909000007
:1000F000130900001D090000270900003109000054
:100100003B0900001FB500F003F88DE80F001FBD8C
:1001100000F0ACBC40F6FC7108684FF01022401CA7
:1001200008D00868401C09D00868401C04D0086842
:1001300000F037BA9069F5E79069F9E7704770B554
:100140000B46010B184400F6FF70040B4FF0805073
:100150000022090303692403406943431D1B104621
:1001600000F048FA29462046BDE8704000F042BA47
:10017000F0B54FF6FF734FF4B4751A466E1E11E0DA
:10018000A94201D3344600E00C46091B30F8027B3B
:10019000641E3B441A44F9D19CB204EB134394B25D
:1001A00004EB12420029EBD198B200EB134002EBB2
:1001B000124140EA0140F0BDF34992B00446D1E952
:1001C0000001CDE91001FF224021684600F0F4FB58
:1001D00094E80F008DE80F00684610A902E004C8FB
:1001E00041F8042D8842FAD110216846FFF7C0FF7C
:1001F0001090AA208DF8440000F099F9FFF78AFFCB
:1002000040F6FC7420684FF01025401C0FD0206889
:1002100010226946803000F078F92068401C08D030
:100220002068082210A900F070F900F061F9A869AF
:10023000EEE7A869F5E74FF080500369406940F6A2
:10024000FC71434308684FF01022401C06D0086838
:1002500000F58050834203D2092070479069F7E788
:100260000868401C04D00868401C03D00020704778
:100270009069F9E70420704770B504460068C34DE3
:10028000072876D2DFE800F033041929631E250021
:10029000D4E9026564682946304600F062F92A46CE
:1002A0002146304600F031F9AA002146304600F0E0
:1002B00057FB002800D0032070BD00F009FC4FF46C
:1002C000805007E0201D00F040F90028F4D100F034
:1002D000FFFB60682860002070BD241D94E80700C3
:1002E000920000F03DFB0028F6D00E2070BDFFF715
:1002F000A2FF0028FAD1D4E901034FF0805100EBAE
:10030000830208694D69684382420ED840F6F8704E
:1003100005684FF010226D1C09D0056805EB8305B8
:100320000B6949694B439D4203D9092070BD55694A
:10033000F4E70168491C03D00068401C02D003E0C8
:100340005069FAE70F2070BD2046FFF735FFFFF731
:1003500072FF0028F7D1201D00F0F7F80028F2D135
:1003600060680028F0D100F0E2F8FFF7D3FE00F05B
:10037000BFF8072070BD10B50C46182802D0012028
:10038000086010BD2068FFF777FF206010BD41684E
:10039000054609B1012700E0002740F6F8742068FF
:1003A0004FF01026401C2BD02068AA68920000F065
:1003B000D7FA38B3A86881002068401C27D020688D
:1003C000FFF7BDFED7B12068401C22D026684FF051
:1003D0008050AC686D68016942695143A9420DD9EA
:1003E000016940694143A14208D92146304600F0E5
:1003F000B8F822462946304600F087F800F078F831
:100400007069D2E700F093F8FFF784FEF6E77069B1
:10041000D6E77669DBE740F6FC7420684FF01026DB
:10042000401C23D02068401C0CD02068401C1FD0EA
:100430002568206805F18005401C1BD027683879A5
:10044000AA2819D040F6F8700168491C42D001680A
:10045000491C45D00168491C3ED001680968491C07
:100460003ED00168491C39D000683EE0B069DAE747
:10047000B569DEE7B769E2E710212846FFF778FEA5
:100480003968814222D12068401C05D0D4F8001080
:1004900001F18002C03107E0B169F9E730B108CA63
:1004A00051F8040D984201D1012000E000208A4259
:1004B000F4D158B1286810B1042803D0FEE72846CB
:1004C000FFF765FF3149686808600EE0FFF722FE1C
:1004D00000F00EF87169BBE77169BFE7706904E06D
:1004E0004FF480500168491C01D000F0CBFAFEE7C0
:1004F000BFF34F8F26480168264A01F4E06111439B
:100500000160BFF34F8F00BFFDE72DE9F0411746B3
:100510000D460646002406E03046296800F054F8EF
:10052000641C2D1D361DBC42F6D3BDE8F08140F69B
:10053000FC700168491C04D0D0F800004FF48051D1
:10054000FDE54FF010208069F8E74FF080510A690F
:10055000496900684A43824201D810207047002050
:10056000704770B50C4605464FF4806608E0284693
:1005700000F017F8B44205D3A4F5806405F5805562
:10058000002CF4D170BD0000F40A0000000000202F
:100590000CED00E00400FA05144801680029FCD0C5
:1005A0007047134A0221116010490B68002BFCD0E0
:1005B0000F4B1B1D186008680028FCD0002010603D
:1005C00008680028FCD07047094B10B501221A605A
:1005D000064A1468002CFCD0016010680028FCD08A
:1005E0000020186010680028FCD010BD00E4014015
:1005F00004E5014070B50C46054600F073F810B9EB
:1006000000F07EF828B121462846BDE8704000F091
:1006100007B821462846BDE8704000F037B8000012
:100620007FB5002200920192029203920A0B000B06
:100630006946012302440AE0440900F01F0651F80C
:10064000245003FA06F6354341F82450401C8242F8
:10065000F2D80D490868009A10430860081D016827
:10066000019A1143016000F03DF800280AD00649C4
:1006700010310868029A10430860091D0868039A3F
:10068000104308607FBD00000006004030B50F4CED
:10069000002200BF04EB0213D3F800582DB9D3F8A1
:1006A000045815B9D3F808581DB1521C082AF1D3C3
:1006B00030BD082AFCD204EB0212C2F80008C3F8CD
:1006C00004180220C3F8080830BD000000E0014013
:1006D0004FF08050D0F83001082801D0002070473A
:1006E000012070474FF08050D0F83011062905D016
:1006F000D0F83001401C01D0002070470120704725
:100700004FF08050D0F830010A2801D00020704707
:100710000120704708208F490968095808471020B0
:100720008C4909680958084714208A4909680958FA
:100730000847182087490968095808473020854923
:100740000968095808473820824909680958084744
:100750003C20804909680958084740207D490968BC
:100760000958084744207B49096809580847482028
:1007700078490968095808474C207649096809589A
:10078000084750207349096809580847542071499F
:1007900009680958084758206E49096809580847E8
:1007A0005C206C4909680958084760206949096854
:1007B00009580847642067490968095808476820AC
:1007C00064490968095808476C2062490968095852
:1007D000084770205F4909680958084774205D4937
:1007E00009680958084778205A490968095808478C
:1007F0007C205849096809580847802055490968EC
:10080000095808478420534909680958084788202F
:1008100050490968095808478C204E490968095809
:10082000084790204B4909680958084794204949CE
:10083000096809580847982046490968095808472F
:100840009C204449096809580847A0204149096883
:1008500009580847A4203F49096809580847A820B3
:100860003C49096809580847AC203A4909680958C1
:100870000847B0203749096809580847B420354966
:10088000096809580847B8203249096809580847D3
:10089000BC203049096809580847C0202D4909681B
:1008A00009580847C4202B49096809580847C82037
:1008B0002849096809580847CC2026490968095879
:1008C0000847D0202349096809580847D4202149FE
:1008D000096809580847D8201E4909680958084777
:1008E000DC201C49096809580847E02019490968B3
:1008F00009580847E4201749096809580847E820BB
:100900001449096809580847EC2012490968095830
:100910000847F0200F49096809580847F4200D4995
:10092000096809580847F8200A490968095808471A
:10093000FC2008490968095808475FF48070054998
:10094000096809580847000003480449024A034B54
:100950007047000000000020000B0000000B0000AA
:1009600040EA010310B59B070FD1042A0DD310C82C
:1009700008C9121F9C42F8D020BA19BA884201D97E
:10098000012010BD4FF0FF3010BD1AB1D30703D0C6
:10099000521C07E0002010BD10F8013B11F8014B7C
:1009A0001B1B07D110F8013B11F8014B1B1B01D198
:1009B000921EF1D1184610BD02F0FF0343EA032254
:1009C00042EA024200F005B87047704770474FF0A6
:1009D00000020429C0F0128010F0030C00F01B800C
:1009E000CCF1040CBCF1020F18BF00F8012BA8BF1A
:1009F00020F8022BA1EB0C0100F00DB85FEAC17CDE
:100A000024BF00F8012B00F8012B48BF00F8012B90
:100A100070474FF0000200B51346944696462039C1
:100A200022BFA0E80C50A0E80C50B1F12001BFF4A7
:100A3000F7AF090728BFA0E80C5048BF0CC05DF80D
:100A400004EB890028BF40F8042B08BF704748BF5B
:100A500020F8022B11F0804F18BF00F8012B7047CF
:100A6000014B1B68DB6818470000002009480A4951
:100A70007047FFF7FBFFFFF745FB00BD20BFFDE719
:100A8000064B1847064A1060016881F308884068E1
:100A900000470000000B0000000B000017040000DE
:100AA000000000201EF0040F0CBFEFF30881EFF3ED
:100AB0000981886902380078182803D100E0000015
:100AC000074A1047074A12682C3212681047000084
:100AD00000B5054B1B68054A9B58984700BD0000B0
:100AE0007703000000000020F00A0000040000006E
:100AF000001000000000000000FFFFFF0090D00386
:02000004000FEB
:104000000000042071AA0F0099AA0F009BAA0F00BC
:104010009DAA0F009FAA0F00A1AA0F000000000098
:1040200000000000000000000000000039460F0002
:10403000A5AA0F0000000000A7AA0F00E54E0F0080
:1040400005500F00ABAA0F00ABAA0F00ABAA0F00E0
:10405000ABAA0F00ABAA0F00ABAA0F00ABAA0F00D0
:10406000ABAA0F00ABAA0F00ABAA0F00ABAA0F00C0
:10407000ABAA0F00ABAA0F00ABAA0F00ABAA0F00B0
:10408000ABAA0F00B5740F00ABAA0F00ABAA0F00CC
:1040900071750F00ABAA0F001D4B0F00ABAA0F00EC
:1040A000ABAA0F00ABAA0F00ABAA0F00ABAA0F0080
:1040B000ABAA0F00ABAA0F00000000000000000038
:1040C000ABAA0F00ABAA0F00ABAA0F00ABAA0F0060
:1040D000ABAA0F00ABAA0F00ABAA0F00DD840F0044
:1040E000ABAA0F00ABAA0F00ABAA0F0000000000A4
:1040F00000000000ABAA0F0000000000ABAA0F00F8
:1041000000000000000000000000000000000000AF
:10411000000000000000000000000000000000009F
:10412000000000000000000000000000000000008F
:10413000000000000000000000000000000000007F
:10414000000000000000000000000000000000006F
:10415000000000000000000000000000000000005F
:10416000000000000000000000000000000000004F
:10417000000000000000000000000000000000003F
:10418000000000000000000000000000000000002F
:10419000000000000000000000000000000000001F
:1041A000000000000000000000000000000000000F
:1041B00000000000000000000000000000000000FF
:1041C00000000000000000000000000000000000EF
:1041D00000000000000000000000000000000000DF
:1041E00000000000000000000000000000000000CF
:1041F00000000000000000000000000000000000BF
:10420000044B05481B1A062B02D9044B03B118476F
:10421000704700BF23860020208600200000000099
:1042200005490648091A891001EBD171491002D0DD
:10423000034B03B1184770472086002020860020DA
:104240000000000010B5064C237843B9FFF7D8FFF3
:10425000044B13B10448AFF300800123237010BD59
:1042600020860020000000002CC00F0008B5084B7D
:104270001BB108490848AFF300800848036813B928
:10428000BDE80840CCE7064B002BF9D09847F7E78C
:1042900000000000248600202CC00F001C86002097
:1042A00000000000134B002B08BF114B9D46A3F5E7
:1042B000803A00218B460F461148124A121A00F02C
:1042C0007DF80D4B002B00D098470C4B002B00D0F5
:1042D00098470020002104000D000B4800F016F85C
:1042E00000F044F82000290000F018FA00F014F85B
:1042F0000000080000000420000000000000000092
:1043000020860020E4CD002039430F000023014621
:104310001A46184600F0A0B808B50021044600F07F
:10432000EDF8044B1868C36B03B19847204600F0C2
:1043300059F900BF18BD0F0038B50A4C0A4D641B6F
:10434000A4100AD004F18043013B05EB8305013C36
:1043500055F804399847002CF9D1BDE8384007F0EA
:10436000D5BC00BF1C8600201886002070B50F4EFB
:104370000F4D761BB61018BF002405D0013455F838
:10438000043B9847A642F9D10A4E0B4D761B07F025
:10439000B7FCB61018BF002406D0013455F8043B12
:1043A0009847A642F9D170BD70BD00BF10860020AD
:1043B00010860020188600201086002070B4860722
:1043C00046D0541E002A41D0CAB2034602E014F17E
:1043D000FF343BD303F8012B9D07F8D1032C2ED9D2
:1043E000CDB245EA05250F2C45EA054519D903F15B
:1043F00010022646103E0F2E42F8105C42F80C5C6C
:1044000042F8085C42F8045C02F11002F2D8A4F110
:10441000100222F00F0204F00F041032032C134498
:104420000DD91E462246043A032A46F8045BFAD800
:10443000221F22F003020432134404F003042CB1BF
:10444000C9B21C4403F8011B9C42FBD170BC7047ED
:1044500014460346C2E700BF2DE9F047254C256806
:10446000D5F848410646884692469946C4B36068E6
:104470001F2817DC431C76B104EB80050122C5F828
:1044800088A0D4F8881182401143022EC4F8881104
:10449000C5F808911ED00230636044F820800020E7
:1044A000BDE8F087144B03B34FF4C870AFF300803E
:1044B0000446D0B1D5F84831002780E88800C5F817
:1044C000484138460123C4F88871C4F88C71002E25
:1044D000E1D0D1E7D4F88C110A43C4F88C21DAE793
:1044E00005F5A674C5F84841C1E74FF0FF30BDE8B7
:1044F000F08700BF18BD0F00000000002DE9F04F4D
:10450000314B85B01B68029303F5A47301900E46EE
:104510000393029BD3F8487137B3DDF80CA04FF03A
:104520000109D3467C68651E0ED4013407EB840470
:104530004FF00008DEB1D4F800319E4217D0013DA3
:104540006B1CA4F10404F5D1204B6BB17B68002BEC
:1045500035D13B6843B13846CBF80030AFF300802B
:10456000DBF80070002FDDD105B0BDE8F08F7B686F
:104570002268013BAB420CBF7D60C4F80080002A7A
:10458000DDD0D7F88811D7F804A009FA05F30B425B
:104590000FD0D7F88C110B420DD1D4F880100198B0
:1045A00090477B685345B4D1DBF80030BB42C6D09E
:1045B000AFE79047F5E7D4F880009047F1E7BB46B6
:1045C0003F68002FAED1CFE718BD0F0000000000FC
:1045D000024B13B10248FFF799BE7047000000007C
:1045E00039430F00FEE700BF38B50D46F8B909683A
:1045F000D9B1104CA14206D0621A3B2A10D801F161
:104600003D03994208D100223C210A4803F0A0FA58
:104610000023A0872B6038BD13F8010DD054F0E7BC
:104620003C22204606F072FAEDE70E23F2E7012362
:10463000F0E700BF807F0020074A6FF002039E452D
:1046400002D1EFF3098101E0EFF308818869A0F15D
:1046500002000078104700BFE9450F0038B5054655
:10466000A8B10D4C00223C21204603F071FAA38F23
:1046700083420ED1234604F13C0253F8041B45F853
:10468000041B9342F9D10130A087002038BD0E20D1
:1046900038BD0B2038BD00BF807F0020BFF34F8F97
:1046A0000549064BCA6802F4E0621343CB60BFF3CE
:1046B0004F8F00BFFDE700BF00ED00E00400FA05EA
:1046C0004BDF704710DF704711DF704713DF704713
:1046D00018DF704760DF704769DF704761DF704740
:1046E00008B5034B1B68DB0700D500BEFFF7D6FFFC
:1046F000F0ED00E0014B1878704700BF3D860020C8
:104700001FB5102200216846FFF758FE02236846B5
:104710000093FFF7DDFF05B05DF804FB2DE9F04FD6
:104720004FF0804389B0D3F81C75D3F81C25A7F14E
:10473000B10466426641B12A00F04281D3F81C45BB
:10474000A4F1A80044424441AF4D4FF080432C7087
:10475000D3F81C85002C40F08681B8F14E0F00F094
:104760008281D3F81C25572A00F07D81A74A126860
:104770001168A74A914204D1D3F80034D90700F157
:104780007281A44B40F20232C3F8402500F0DEFAF9
:1047900000F032FF002000F0ADFB00F0AFFF78B179
:1047A000052000F0A7FB00F0BBFF08B103F088F97B
:1047B00000F0DCFF08B103F083F9062000F09AFB5B
:1047C0001CB9122000F052FA04462B78002B40F05E
:1047D000F980122000F04AFA10B12A2000F046FABF
:1047E00000F00100287000F037FEDFF84C9202461E
:1047F000002800F03F81002C40F03C81834B1B6877
:104800001968854B994240F0358143F2040383498E
:104810001B68DFF8F8B14B4509BF43F208034FF4BA
:1048200090531B6803F500738A461B688B4204BFD4
:1048300001F14741A1F51421DBF800300CBFA1F6CE
:10484000FE010021196014B9002A40F09F802C78E5
:10485000002C00F0F380082000F04CFBB12F01D0B9
:10486000FFF74EFF4FF47420FFF730FF08B103F05D
:1048700027F96B4B6B491868039003A8FFF722FFD9
:1048800008B103F01DF9684991F816335A09EC2371
:104890001341DA0700F1DF80644B04930C220021FE
:1048A00005A8FFF78BFD01238DF814308DF8153026
:1048B000049A002305A940208DF816308DF8173092
:1048C000FFF70AFF08B103F0FBF80C22002105A84E
:1048D000FFF774FD9DF81430049A43F0010305A915
:1048E000A0208DF81430FFF7F7FE08B103F0E8F8C8
:1048F0000C22002105A8FFF761FD01238DF814307B
:10490000049AF72305A92320ADF81630FFF7E4FE3B
:1049100008B103F0D5F80C22002105A8FFF74EFDE1
:1049200001238DF814308DF81630049A062305A95A
:104930002020ADF81830FFF7CFFE08B103F0C0F823
:1049400004A8FFF7C7FE08B103F0BAF8264643F201
:10495000040328781B684B4509BF43F208034FF452
:1049600090531B6803F500731B68534513BF002267
:10497000012240F6B831114600F056FE08B103F0AE
:104980009FF82B78002B63D0FFF79EFE00F02CFAE7
:1049900000F062FD90B100F0B1FE78B943F204037B
:1049A0001B684B4504D10EB9FFF7AAFEFFF78CFE3A
:1049B000DBF8003000221A6000F070FEFFF76EFE98
:1049C0000124C1E601200BE743F208031B6803F54D
:1049D00000731968114B99420DD064B96AB10B4B41
:1049E0000B491B6801921960114B124843F00103F7
:1049F0009847019A09E7012407E7144605E71A6872
:104A000042F480021A6047E73D860020308400208F
:104A1000D51A5A0000A000407E67E54E7CB0EE87B4
:104A20001EBD0F00E1460F0000E100E00080002005
:104A300030BD0F000048E801DBE5B151022000F075
:104A400059FAA8F14E035842584103F04BFD7EE756
:104A500003F098FD9AE70B4B9A68002ACFD14FF4E8
:104A600080030B6018E74FF080430022C3F81C2539
:104A7000012486E643F204031B684B45A4D04FF49F
:104A80009053A6E714CD002010B5FEB04FF4FA7392
:104A90000DF1020101A8ADF80230FFF71FFE044638
:104AA00040B9BDF80430102B07D0112B0CD001A851
:104AB00001F0EEF820467EB010BD054B01221A70C1
:104AC000072000F017FAF2E7014B18700820F8E70A
:104AD0003C86002013B501A8FFF7F2FD044670B92B
:104AE000019802F08DFB019B0A2B05D0092B09D000
:104AF0000B2B04D1012000E0204604F037FB2046B8
:104B000002B010BD0220F8E708B5FFF7BDFF052889
:104B1000FBD1FFF7DFFF0528F7D108BD0021024ACE
:104B2000084602F035BF00BF094B0F0038B50C4CEA
:104B300021684B1C054612D04FF48052094805F0FD
:104B4000B5FF48B115B1206800F0B8FA4FF48062A3
:104B50000449206800F0D2FA4FF0FF33236038BDDB
:104B600034840020408600202DE9F0410F4E90460D
:104B700020F47F64326824F00F04944205460F4607
:104B800009D01846FFF7D2FF4FF48052214608485B
:104B9000346005F0BBFF0648C5F30B0542463946B5
:104BA0002844BDE8F04105F0B1BF00BF34840020C7
:104BB000408600200B2970B5044615462ED903897E
:104BC000053300EB43030144CA1AD2B2012A25D9A6
:104BD0008B4223D81946134805F098FF2388522B9F
:104BE0001ED1AB0704D062884CF668639A4217D195
:104BF000218900230A344FF6FE7043F20C058B42E4
:104C000001D30B2070BD34F8022B824204D02E88D1
:104C1000964203F10103F2D1002070BD092070BD5E
:104C20000F2070BD4096002008B5002202F090FFD2
:104C3000044A5178137843EA0123984214BF0B20A9
:104C4000002008BD409600201F2884BF00F01F00F0
:104C5000044B054A98BF4FF0A04300F5E07043F8BD
:104C600020207047000300500C0003001F288ABF5B
:104C7000064B4FF0A04300F01F00D3F8103523FA85
:104C800000F0C04300F00100704700BF0003005077
:104C900000234FF0FF328360C0F80035C0F8602574
:104CA000C0F86425C0F86825C0F86C2540F2FF32D2
:104CB000C0F80435C0F80825C0F80C35C0F8103528
:104CC000C0F81435C0F82035C0F82435704700000E
:104CD0001B4B00221F2930B5C3F800258BBF01F004
:104CE0001F030B46174A4FF0A04203F5E07403255B
:104CF00042F82450012404FA03F3C2F80C3500F5FD
:104D0000AC700F4B002243F82010FF21C3F804259C
:104D10000220C3F808150421C3F80C15C3F81005C8
:104D20000948C3F81425C3F82005C3F82415C3F8AF
:104D30002825C3F82C25C3F80045C3F8102130BD41
:104D400000C00140000300504098002038B54FF0EB
:104D5000804301240025DC601220C3F818559C60B4
:104D6000FFF772FF2A20FFF76FFF174B4FF4C85071
:104D7000234398470D212846FFF7AAFF0E2120461E
:104D8000FFF7A6FF114A1E21082002F0DDFD08B141
:104D900002F096FE02F03EFD0D490E4BE02081F838
:104DA00023001B684FF47A72B3FBF2F3013BB3F1BB
:104DB000807F07D2084A5360002381F82300936064
:104DC0000723136038BD00BF40BD0F004C96002084
:104DD00000ED00E03884002010E000E00148FFF71B
:104DE00057BF00BF00C00140164B002110B519602D
:104DF000FFF7F4FF144B154C4FF40032C3F880203A
:104E000003F1C04303F53C534FF48032C3F8482309
:104E1000C3F8082301225A609A604FF080430220B1
:104E2000DA600B461F2B1A46C6BF03F01F0221464D
:104E30004FF0A04102F5E0720133302B41F822001F
:104E4000F0D110BD10E000E000E100E000030050F0
:104E5000074B23F81010074B00221A6082B01B6822
:104E60000193019B044B01221A6002B0704700BFFE
:104E70004098002010C1014008C0014010B5164BF9
:104E80001C68164B1B68B4FBF3F1580803FB114276
:104E9000824288BF9A1A4F215143B1FBF0F1C1F110
:104EA000FF0189B20020FFF7D3FF0D4B1A68B4FB56
:104EB000F2F1500802FB1143834288BFD31A8F21BD
:104EC0005943B1FBF0F1C1F1FF0189B20120BDE806
:104ED0001040FFF7BDBF00BF3C980020489800205D
:104EE00050980020024A136801331360FFF7C6BFD1
:104EF0003C9800201B4A1168082823D8DFE800F0FE
:104F000013051322221A1E242A00174B40F6B8302C
:104F100018604FF47F4303F0103323F0805399421D
:104F200018BF13607047104B4FF4967018604FF421
:104F30007F03F0E70C4B64221A6070470A4B40F67F
:104F4000B83018600B46E6E7084B40F6B8301860FA
:104F5000FF23E0E7054B4FF4967018604FF0FF1306
:104F6000D9E700BF4C9800204898002050980020B6
:104F700000F1804382B01A68002A14BF012000208B
:104F800004D000221A601B680193019B02B0704795
:104F90000F4B1A78D2B902784FF08041C2F3400229
:104FA000C1F88025027802F00102C1F87825094A8B
:104FB0001168C90706D4E02182F800130121C2F864
:104FC0008011116001221A7003487047034870472E
:104FD00010CD002000E100E00000AD0B0C00AD0B97
:104FE000034B00221A60026802B11A60704700BFCA
:104FF0005C9800204FF080434FF46072C3F80423A4
:105000007047000010B54FF08043D3F804436207A7
:1050100007D54FF48470FFF7ABFF10B11E4B1B6830
:105020009847A30608D54FF48A70FFF7A1FF18B17F
:105030001A4B00201B689847600608D54FF48C7007
:10504000FFF796FF18B1154B01201B689847210602
:1050500008D54FF48E70FFF78BFF18B1104B00206E
:105060001B689847E20508D54FF49070FFF780FF62
:1050700018B10B4B01201B689847A3050AD54FF4C4
:105080009270FFF775FF28B1054B02201B68BDE841
:105090001040184710BD00BF5498002058980020B9
:1050A0005C980020044AD2F80034DB07FBD501608D
:1050B000BFF35F8F704700BF00E001404FF08053A7
:1050C0001A69B0FBF2F302FB130373B9084B022217
:1050D000C3F80425C3F80805D3F80024D207FBD58C
:1050E0000022C3F80425034870470348704700BFF7
:1050F00000E001400000AD0B0A00AD0BF8B50B4B12
:1051000016460122C3F804250C460025471AAE4274
:1051100004D1064B0022C3F80425F8BD381954F811
:10512000041BFFF7BFFF0135F1E700BF00E00140BE
:10513000BFF34F8F0549064BCA6802F4E062134380
:10514000CB60BFF34F8F00BFFDE700BF00ED00E075
:105150000400FA05064B1B68082B06D1054B1B689B
:10516000032B02D8044AD05C70470020704700BF70
:10517000300100103401001046BD0F00034B1868C9
:10518000A0F1080358425841704700BF3001001099
:1051900008B5FFF7F3FF40B14FF080430022C3F89A
:1051A0000C21C3F81021C3F83825FFF7E7FF0028CA
:1051B00046D04FF08052694BD2F80414C3F8201542
:1051C000D2F80814C3F82415D2F80C14C3F8281523
:1051D000D2F81014C3F82C15D2F81414C3F83015F3
:1051E000D2F81814C3F83415D2F81C14C3F84015BB
:1051F000D2F82014C3F84415D2F82414C3F8481583
:10520000D2F82814C3F84C15D2F82C14C3F8501552
:10521000D2F83014C3F85415D2F83414C3F860151A
:10522000D2F83814C3F86415D2F83C14C3F86815E2
:10523000D2F84014C3F86C15D2F84424C3F8702592
:10524000FFF788FF10B1464B464A1A60FFF782FF0E
:1052500018B1454BFB22C3F81825FFF77BFF48B177
:105260004249434B0A681B6822F00F0203F00F0308
:1052700013430B60FFF76EFF18B13E4B4FF4007203
:105280001A60FFF77BFF48B14FF08043D3F800244A
:10529000D10744BF6FF00102C3F80024364AD2F8A8
:1052A000883043F47003C2F88830BFF34F8FBFF3E8
:1052B0006F8F4FF01023D3F80C22D2071ED52F4B3F
:1052C0000122C3F80425D3F80024002AFBD04FF0B4
:1052D0001022D2F80C3223F00103C2F80C32274B13
:1052E0001A46D3F800140029FBD00021C3F8041596
:1052F000D2F80034002BFBD0FFF71AFFD3F80022BE
:10530000002A03DBD3F80432002B23DA1B4B0122E3
:10531000C3F80425D3F80024002AFBD04FF0102254
:105320001221C2F80012D3F80024002AFBD04FF05B
:1053300010231222C3F80422104B1A46D3F800148B
:105340000029FBD00021C3F80415D2F80034002B4B
:10535000FBD0D1E70A4B0B4A1A6008BD00C00040E1
:105360008C5600404881030000F00040E40E0040ED
:10537000580200104096024000ED00E000E00140BD
:10538000388400200090D00313DF704718DF704787
:10539000064B1878012803D1012904BF0221197096
:1053A00012B1104602F08CBB704700BF8D980020F0
:1053B00070B50F4C0F4E2546D4F800347BB902F07F
:1053C0004DFB05F04FFB20B104F0F0F9002004F094
:1053D0000FFE094B1B78023B022BEDD870BD00235A
:1053E00003F5C0720133082B45F82260F8D1E6E7D7
:1053F000000001403546526E8D98002008B5FFF739
:1054000079F988B11C21114801F096FF08B102F02A
:1054100057FB00231C220E490C4801F07DFF98B178
:10542000BDE8084002F04CBB4FF47F20FFF746FE7A
:10543000072207494FF47F20FFF760FE054B1A78DB
:10544000012A04BF02221A7008BD00BF8498002000
:10545000909800208D98002013B543F2040301A812
:105460001A68124B9A420ABF43F208034FF4805461
:105470001C6800F0A9F92368013302D16368013385
:1054800011D0019B1A88012A0DD1588820B1002221
:105490009968204602F05CFB019B5B881B1A58420E
:1054A000584102B010BD0020FBE700BFDBE5B15161
:1054B00084B02DE9F34108AC84E80F009DF820404A
:1054C000BDF82280099F0A9E0B9D01A800F07CF97F
:1054D00054B9384B0122FF21A3F802809D601A8045
:1054E0009980354B1A7012E0012C17D1314BBA1943
:1054F0002A449A60A5221A80FF229A800C9AA3F867
:105500000280DF601E615D619A612B4B1C70FFF7AA
:1055100075FF02B0BDE8F04104B07047032C0ED116
:10552000019A244B11881980518892689A60AA22A6
:1055300059809A80DF601E615D610122D1E7022CF3
:1055400016D1019A1B4B1188A5290BD100225A8034
:105550009A60FF221A80FF229A800022DA601A6184
:105560005A61EAE719805188926859809A60F2E797
:10557000052C0ED1FFF7BEF840B100F089FD08B14F
:1055800002F09EFA03220C4B1A70C2E700F01CFADC
:10559000F5E7042C09D1074B00229A605A80FF22BC
:1055A0001A80019A92889A80B1E7062CB1D1042220
:1055B000E9E700BF909800208D98002000B50C4BC3
:1055C0001B7889B063B90B4B1B786BB905238DF839
:1055D0000C30079B009303AB0FCBFFF769FF03E091
:1055E00003F094FF0028EED009B05DF804FB00BF83
:1055F0008C980020809800201FB50023029303930D
:10560000074B019301F050FE30B906494FF47F2358
:1056100001A84B6001F06CFE05B05DF804FB00BF13
:1056200091530F008498002070B504460E460AB1CD
:1056300080F00102144B1A7000F09AFF054628B959
:1056400034B100F05DFC0546FFF7B2FE284670BDA0
:10565000BEB10E4B0E4A0F481C70214602F00CF9E9
:105660004FF400454FF4FA7000214FF47A72002392
:10567000E5FB060106F0AEF922460146064802F0B7
:105680000DF900F07DF9DEE78C980020809800206D
:10569000BD550F004CBD0F00609800201FB5154B85
:1056A0004FF0FF32C3F88020C3F8802143F2040397
:1056B0001A68114B9A420FD143F208031B6818462F
:1056C000FFF762FE10B14FF000521360184600F071
:1056D0009FF805B05DF804FB102200216846FEF734
:1056E0006DFE0623009368464FF480530193FFF745
:1056F0004DFEE7E700E100E0DBE5B15107B501A8A9
:1057000000F062F8019B1A88A52A07D09888A0F1BA
:10571000AA035842584103B05DF804FB0120FAE7A0
:1057200010B501F041F9A8B10E4B0F4843F0010349
:10573000984701F0A3F808B102F0C2F901F034F97A
:1057400008B102F0BDF901F0E1F8044638B102F009
:10575000B7F904E001F000F904460028E4D120463E
:1057600010BD00BF50BD0F0000A8610010B588B08B
:1057700003AC142200212046FEF720FE02238DF800
:105780000C300023009394E80F00FFF791FEFFF721
:105790000FFE002008B010BD13B5044601A800F0AC
:1057A00013F8019B1A8822805A8862809A68A26046
:1057B0009A88A280DA68E2601A6922615A69626195
:1057C0009B69A36102B010BD014B0360704700BF2D
:1057D00000F00F00F0B50346186880F30888586899
:1057E000FF2464B2EFF30585002D01D1A6460047E2
:1057F0002546064621273FBAF0B40024002500269E
:105800000027F0B4F92040B2004700BFF0BD00BF50
:10581000FFF7E0BF73B500230DF1020101A8ADF859
:105820000230019302F0D4FDF8B9019C25785DB3F4
:10583000174B93F83020032A28D00C2606FB00F2E1
:105840009958E9B998189D5093F830200132D2B296
:1058500083F83020BDF802300E4A9B08013B043427
:1058600043608460084602F093F8019B33B128B18D
:10587000184602F0C9FD08B102F022F902B070BD6D
:1058800001300428DAD1F0E70720EEE70420ECE746
:10589000AC980020DD580F0011B1084602F010B995
:1058A0007047000010B50C230B4A4343D418D1585D
:1058B00081B192F83010A0680139C9B282F8301075
:1058C0000021D150A1606160043802F09DFD08B153
:1058D00002F0F6F8002010BDAC980020264B70B501
:1058E0000122264E1A7096F83030002B43D0234CFC
:1058F00000250DE0204600F0D1FEE8B2FFF7D2FF10
:1059000008B102F0DDF80135042D04F10C04EAD0F1
:105910002368002BF7D0013B042BEED801A252F8EC
:1059200023F000BF4D590F00FB580F0039590F00ED
:10593000F5580F0065590F00A3686360204600F01A
:1059400053FE0028D9D002F0BBF8D6E7204600F07D
:105950002DFF00F009FF08B102F0B2F80520FFF7B3
:10596000C9FACAE700F04EFF00F06CFF0620BDE860
:105970007040FFF7BFBA70BD80980020AC9800203F
:105980000E4A08B5002382F830301946D150D0189D
:105990000C33302B81604160F8D1094800F01EFEC5
:1059A00002F0B0FC08B102F08BF8064802F096FC59
:1059B00008B102F085F8002008BD00BFAC980020B7
:1059C00099580F0015580F0008B50020FFF76AFF1F
:1059D0000120FFF767FF0220FFF764FF0320FFF7B6
:1059E00061FFBDE8084002F0D3BC006870476CDF7F
:1059F00070476DDF70476EDF70476FDF704772DF93
:105A0000704773DF704774DF704776DF704777DF6A
:105A100070477ADF70477CDF70477FDF704786DF33
:105A200070478FDF704790DF7047AFDF7047B0DFA0
:105A30007047B1DF7047B2DF7047B5DF704764DF92
:105A4000704766DF70470C2813D8DFE800F01412A7
:105A50001212121209120712120D0B0002207047C7
:105A6000032070470420704704290CBF052006203E
:105A70007047062070470120704702F021B810B52A
:105A8000044608460321FFF7DEFF032102462046B5
:105A900001F086F918B1BDE8104002F011B810BD50
:105AA000032810B50B46144620D0042825D169B12F
:105AB000124B18884FF6FF7398421ED01321FFF740
:105AC000A4FFD0B1BDE8104001F0FABF104602F0CB
:105AD0009BF808B101F0F4FF094B1B689C420CD104
:105AE00001220321074801F05BF9EAE7012118468A
:105AF000FFF7A9FF01210246F4E710BD3E84002014
:105B0000A099002050990020F8B50A4CA3889E184F
:105B10001D2E15460DDC2768FE1802F1010E07F850
:105B200003E07070B01C04F0F1FFA28802322A4436
:105B3000A280F8BD00990020F0B54A4D2C7893B0B2
:105B4000002C40F08A80484E102221463046FEF755
:105B500035FC464B3360182221460CA8FEF72EFC7C
:105B600028230E93424B1B7801278DF8307006AE28
:105B7000002B74D021463F4C102202A8FEF71EFCD9
:105B8000102202A9E01D04F091FF002867D03A48D6
:105B900039460460FFF72FFF08B101F091FF374B42
:105BA000374603F1100E186859683A4603C20833A5
:105BB00073451746F7D12068A2880A903048A37928
:105BC000ADF82C20002101228DF82E300660FFF761
:105BD00014FF08B101F074FF03238DF8443004234F
:105BE0008DF8063041F23053ADF80830254B32467F
:105BF0009B798DF80A300DF1070102A8FFF71FFF0E
:105C0000012210460DF10601FFF77EFF1E4805F048
:105C100057F91D49C2B20920FFF776FF102231461D
:105C20000620FFF771FF0CAA0F491848FFF7E7FE9F
:105C300008B101F045FF154C042221780120FFF73F
:105C4000E6FE08B101F03CFF01212078FFF7D9FE04
:105C500008B101F035FF01232B7013B0F0BD06230E
:105C6000BEE700BF8499002000990020E098002042
:105C70004C990020109900209C9900201799002031
:105C8000809900205099002056BD0F003C840020D0
:105C9000F0B504460146B1B08F4801F0B5F823884D
:105CA000212B00F0058142D8112B00F09D8007D8F0
:105CB000012B00F0BF80102B00F08F8031B0F0BDC1
:105CC000142B00F0D5801A2B5CD0132BF6D1834B0C
:105CD00003AC9A79186899888DF822200790DA1D0C
:105CE000ADF820101733264610685168254603C5C5
:105CF00008329A422C46F7D1794B09AA03F11807CA
:105D0000154618685968144603C40833BB42224636
:105D1000F7D1186820607348734A0088159610AB55
:105D200085211495FFF779FE0028C7D0B6E0512BE6
:105D300000F086801FD8232B00F0B380262BBDD126
:105D4000237A012BBAD1694B00221A70684B19686B
:105D50000139196000296AD110AC14222046FEF7DF
:105D60002DFB05238DF84030149B009394E80F0021
:105D7000FFF79EFBA2E7552B00F0A580562B4CD0D9
:105D8000522B9BD1574B1C884FF6FF75AC4200F04D
:105D90008480584B1B78002B79D001230822564968
:105DA0002046FFF746FE002878D10246014602232E
:105DB0002046FFF73EFE002870D12A460C212046DF
:105DC000FFF733FE43F2020398423FF477AF08280F
:105DD0003FF474AF1128A7D170E7424BA2881A8014
:105DE000424B00221A7069E730AA802322F89C3DBA
:105DF0003C4C3F4B208832211960012310A9FFF74A
:105E00001AFE08B101F05CFE3C4B1B780BB9FFF7A2
:105E100093FE4FF6FF73238050E7A379002B7FF4A6
:105E20004DAF304B13211888FFF7EFFD7CE7FFF7EC
:105E300083FE43E72B4B00211888FFF702FE73E730
:105E4000A379002B3FF43AAFA27B043A022A3FF633
:105E500035AF022B18BF01238DF840304FF4C173CA
:105E6000ADF844301F4B10A91888FFF7E0FD5BE741
:105E70001A4A258A518D02F1180000238D420CBF69
:105E8000014619460732A088FFF7C9FD4CE71A46BC
:105E900019462046FFF7CDFD46E7082001F010FE29
:105EA0000CE7104B002211461888FFF7BCFD3BE7BA
:105EB00000238DF840308DF841300A4B10A9188826
:105EC000FFF7AFFDFAE6E188064BF72928BFF72177
:105ED0001888FFF7B2FD27E750990020109900209D
:105EE000289900203E840020929900208499002067
:105EF000408400204C99002044990020979900206C
:105F000030B5564A564800231370564A95B0137060
:105F100000F064FB01F038FE0546002840F0878061
:105F20005148FEF79BFB002840F084804F4B012234
:105F30001A709DF804304E48012262F3030314AC3A
:105F400062F3071304F84C3D04F0BAFF484982B2EB
:105F50002046FFF760FD08B101F0B2FD08220021E4
:105F600004A8FEF72BFA0823ADF810301823ADF87B
:105F700012300023ADF8143004A84FF4C873ADF804
:105F80001630FFF746FD08B101F09AFD00210C2202
:105F90002046FEF713FA0823ADF80430354B029380
:105FA0002146354B3548039300F03AFD08B101F026
:105FB00087FD334C0021402204A8FEF7FFF920465C
:105FC00004F07EFF05942F4CADF81000204604F03D
:105FD00077FF07942C4CADF81800204604F070FFB2
:105FE0009DF84C30ADF83000012262F3030362F3F8
:105FF00007138DF84C309DF84D300D9403F0F003ED
:106000006FF3071304A88DF84D3001F01BF81F4AF9
:106010001378032103F0F00361F306136FF3C71342
:1060200013700723537010239370FFF785FD2846E4
:1060300015B030BD04A8FFF7DCFC08B101F040FD4D
:106040009DF8113004A801338DF81130FFF7CFFC13
:1060500000283FF46EAF01F033FD6AE79799002006
:10606000A15A0F0091990020109900204C9900200E
:1060700056BD0F00E1600F007B5A0F0050990020C1
:106080005DBD0F0074BD0F008EBD0F009299002002
:1060900010B50F4B01221A700E4B18884FF6FF7384
:1060A000984207D01321FFF7B0FC08B101F008FDBA
:1060B000002010BD084C2278002AF9D0074B187830
:1060C000FFF7A1FC08B101F0FBFC00232370EFE710
:1060D000979900203E840020849900203C84002071
:1060E000F0B50B7889B005460C46092B23D8DFE8BC
:1060F00013F02B00330042000A0018002400FC00BB
:10610000050145000A0100F07DFB0421FFF79BFC1F
:1061100004210246284600F043FE60B101F0D0FCA5
:1061200009E0FFF7B5FF08B101F0CAFC00F08AFBF7
:1061300008B100F095FB09B0F0BDFFF7A9FF0028FA
:10614000F7D001F0BDFCF4E7714B01221A704B68E7
:106150001A78704B1A70EEE76D4B02261E704B6872
:106160001B78012BE7D100F0FFFA3146FFF76BFCFB
:1061700002463146CEE70322654BEBE70520FEF7EA
:10618000B9FE634B1E78022E29D0032E4DD0012E6E
:10619000D1D104AF102200213846FEF70FF95D4B34
:1061A00002971B788DF8103000230393237A032283
:1061B0000C2B0192DDD163681846FFF716FC0590A1
:1061C000181DFFF712FC069003F10800FFF70DFC05
:1061D000079001A800F008FA0028ACD0C5E7237AA0
:1061E00013F003010FD00022C1F104019646981864
:1061F0001646C0B267680132914207F800E0F6D156
:106200000133334423720123049363680693237A92
:1062100004A89B08059300F0C9FA00288BD002213E
:10622000FFF711FC0221024674E7207A830702D0AF
:10623000324631466EE7384E0190314601F0BAFCE5
:10624000014618B12846FFF71AFC74E76168019A05
:10625000306804F05BFC019801F018FD014600284D
:10626000F0D101A9304601F021FD01460028E9D115
:1062700004230493019B9B08059304A833680693A9
:1062800000F00CFA074640B9244A237A11680B44FF
:106290001360234B32681A604DE709281BD11F4B4E
:1062A000217A1A68114419601E4B1B78002B3FF4A9
:1062B00042AF1D4C2388013B9BB22380002B7FF40F
:1062C0003AAF284600F032FD08B101F0F9FB174B58
:1062D0001B8823802FE7306801F096FC014610B13F
:1062E0002846FFF7CCFB3946ACE70E4B01221A706B
:1062F0000E4A8B8813800C4A13801CE7094A00233E
:1063000013700A4AF8E7054B196800F0D3FC04E75C
:106310009199002098990020A49900208899002044
:10632000A0990020909900208E9900208C9900203F
:1063300018DF70470129F8B50D4614461F4607D0EF
:10634000032912D014B32046BDE8F84001F0B8BBD1
:106350000F4B1B78052BF5D10E4B1B68002BF1D092
:106360003A46214604209847ECE7094E3378022B41
:10637000E8D1094B5B689847064B35701E68002EC4
:10638000E0D03A4621462846B047DBE7F8BD00BFDB
:10639000B0990020A8990020B499002030B589B0A8
:1063A00003AC142200212046FEF708F8094B1B8895
:1063B000ADF80E30084BDB6806930025079B8DF87F
:1063C0000C50009394E80F00FFF772F8284609B0CC
:1063D00030BD00BFC09900200C9A002000B589B0E4
:1063E00003238DF80C300A4B1B88ADF80E30094B97
:1063F0005A6804929A68DB680693079B009305929B
:1064000003AB0FCBFFF754F8002009B05DF804FB95
:10641000C09900200C9A002000B589B001238DF8A6
:106420000C300F4B1B88ADF80E3043F204031A6892
:106430000C4B9A420ABF43F208034FF480521A6889
:10644000094B596804919968DB680693059100929D
:1064500003AB0FCBFFF72CF8002009B05DF804FB6D
:10646000C0990020DBE5B1510C9A002010B588B02E
:1064700003AC142200212046FDF7A0FF04238DF871
:106480000C300023009394E80F00FFF711F808B0D8
:1064900010BD00001B4BF7B51B4C1C601B4B0222B0
:1064A0001A70FEF727F91A4B48B11968204600F018
:1064B00043FFB8B103B0BDE8F04001F001BB1B6879
:1064C0001D0BC3F30B0303B10135124F002443F23C
:1064D0000406A54208D1002300931A4603210A4866
:1064E000FFF728FF03B0F0BD3368BB420ABF43F299
:1064F00008034FF48050186800EB0430FEF7DEFD0F
:106500000134E6E7249A00201C9A0020B09900206C
:10651000C4990020DBE5B1517FB505460C469608CD
:10652000032168468DE8220002940396FFF700FFDE
:10653000D8B1B4F5805F11D8012368468DE82800F2
:1065400002940396FFF7F4FE78B9032368468DE8BA
:10655000280002940396FFF7EBFE06E01A46E11AC4
:10656000E81AFFF7D9FF0028E6D004B070BD00009C
:106570001FB5134B0193134B134900241C70134B8D
:10658000029401A81C80039400F0B2FE104B10B1DD
:106590001C7004B010BD43F2040211680D4A914210
:1065A00008BF43F2080208490CBF12684FF480523A
:1065B0004A60094A0021116001221A70E9E700BF10
:1065C00035630F00089A00201C9A0020C099002013
:1065D000B0990020DBE5B151AC990020014B186067
:1065E000704700BFA899002010B54368214C0FCB1D
:1065F00084E80F002278500701D5910734D16068F4
:10660000830731D1A36899072ED1E1688C072BD17C
:10661000184408441849B3F5204F086026D843F2BF
:1066200004031968154B994209BF43F208034FF45C
:106630006C231B68C3F56D23834217D3104B11499C
:10664000196011495960D10709D5104A9A60104B59
:106650001B78012B0CD1FFF71DFF002010BD920706
:106660004CBF0C4A0C4AF1E7062010BD0C2010BDAF
:10667000082010BD0C9A0020C4990020DBE5B15120
:10668000B499002095640F006D640F0019640F0029
:10669000B0990020DD630F009D630F002DE9F743E3
:1066A00000284FD08768BB074ED12A4B1B78052B9B
:1066B0004CD1294B294D44681A682968A40022440A
:1066C0008A421E46A94606D94FF0FF321A600C20B6
:1066D00003B0BDE8F083FEF70DF8DFF88880B0B1B5
:1066E0003368D8F800002246394600F015FE00282D
:1066F000EED133681C44D9F8003034609C4227D175
:10670000FDF7F8FF08B9FEF711FA0020E0E743F2C1
:10671000040335681A68124B9A420ABF43F2080311
:106720004FF4805018682246394628440023FEF76B
:106730001BFA00943B4600220121D8F80000FFF725
:10674000F9FDD6E70E20C3E71020C1E70820BFE718
:106750000920BDE7B0990020AC990020C499002021
:10676000DBE5B151249A002070B50B4B1D6885B94B
:106770000A4E3378042B0CD1094C0A4B21781A7835
:106780000948FEF717FA10B90523337070BD25705C
:1067900070BD082070BD00BFAC990020B0990020EA
:1067A000089A00200C9A0020C899002070B5114B5F
:1067B0001A78032A03D0042A03D0082415E00422FF
:1067C0001A700D4B1C68002CF7D10C4E45683378BD
:1067D000AD00EA18402A0AD8816809482A461844B8
:1067E00004F094F933781D443570204670BD0924B7
:1067F000FBE700BFB0990020AC990020089A002068
:10680000C899002010B50B4C2378052B10D10A4BEA
:1068100019680A4B1B6899420AD106232370084B5A
:106820001B685868FEF700FA18B90723237010BDDB
:10683000082010BDB0990020AC990020C499002018
:10684000249A0020044B1B78072B02D1034B9B6832
:1068500018470820704700BFB0990020B499002065
:1068600000B589B006238DF80C30079B009303AB6D
:106870000FCBFEF71DFE09B05DF804FB10B58CB020
:1068800005A8FEF789FF089A002A3BD00B9C02F569
:106890008053A3422AD91C49A4F5805301EA53032B
:1068A00043F2080109688A4208D85800121A00F514
:1068B00080512044FFF730FE0CB010BD03F580502E
:1068C00001210290039001A801910491FFF730FD8E
:1068D0000028F1D14FF480500290039001A801915B
:1068E0000491FFF725FD0028E6D1DEE7012301939F
:1068F00092084FF4805301A8029403930492FFF787
:1069000017FDD9E71046D7E700F0FFFF00B58DB0BF
:1069100005A8FEF741FF099890B1089B9BB943F287
:1069200004031A680B4B9A4210D143F208031B6808
:10693000029380080022039001A80192FFF7F8FC5F
:106940000DB05DF804FB0B9A1344F1E74FF480534C
:10695000EEE700BFDBE5B15100B58DB005A8FEF74D
:106960001BFF0998A8B1089BB3B943F204031A6846
:106970000C4B9A4213D143F208031B680393032282
:106980008008019204904FF4742201A80292FFF74C
:10699000CFFC0DB05DF804FB0B9A1344EEE74FF407
:1069A0008053EBE7DBE5B15130B58DB005A8FEF7BC
:1069B000F3FE0898A8B10B9C00F58053A34212D9AE
:1069C00043F208031B68984219D80E4BA4F5805275
:1069D00003EA52035D00421B05F580516019FFF781
:1069E0009BFD0DB030BD03238008019304904FF44C
:1069F000805301A802930394FFF79AFCF1E70E205D
:106A0000EFE700BF00F0FFFFA8DF7047AADF704785
:106A1000ADDF7047AEDF7047B0DF704762DF7047B1
:106A20002DE9F04F0F4695B00546002800F03B8158
:106A3000002900F038814B68002B00F034814FF6BC
:106A4000FF730380994B04AA03F1100E16461868D1
:106A50005968144603C4083373452246F7D114AB72
:106A600041F230520DF10A01304623F8482DFFF76C
:106A7000D5FF0446002840F012812A1D1946012046
:106A8000FFF7C2FF0446002840F009819DF80A3054
:106A9000AB7101461C220DA8FDF790FC9DF8343027
:106AA0000E9443F004038DF8343001AEAB798DF8C9
:106AB0000E30214641F23253032230461094119495
:106AC00012941394ADF80C30FDF778FC9DF8043067
:106AD00064F3030364F307138DF804309DF8053065
:106AE0004FF0010A6AF303036AF307138DF80530C8
:106AF0009DF806306AF3420364F3C30364F304139E
:106B0000DBB243EA0A032146142208A88DF80630B6
:106B10000DF10C08FDF752FC4FF0140905F10803C4
:106B200008AA0DA9A888ADF82840ADF82A400C9411
:106B3000CDF820800996ADF82C90FFF767FFA346AB
:106B40000446002840F0AB8001461C220DA8FDF74A
:106B500035FC9DF834300E9443F018038DF8343032
:106B6000AB798DF80E30214641F231530322304685
:106B70001094119412941394ADF80C30FDF71EFC90
:106B80009DF8043064F3030364F307138DF80430B5
:106B90009DF805306AF303036AF307138DF8053097
:106BA0009DF806306AF3420364F3C303DBB243F09B
:106BB000110321464A4608A88DF80630FDF7FEFB72
:106BC0001723ADF82C3008AA05F110030DA9A888E9
:106BD000ADF828400C94CDF820800996ADF82AB085
:106BE000FFF714FF0446002859D101461C220DA8C6
:106BF000FDF7E4FB9DF834300E9443F002038DF86A
:106C00003430AB798DF80E30214641F234530322F3
:106C100030461094119412941394ADF80C30FDF793
:106C2000CDFB9DF804306AF303036AF307138DF874
:106C300004309DF8053064F3030364F307138DF803
:106C400005309DF806306AF3420364F3C30364F32E
:106C50000413DBB243EA0A0321464A4608A88DF82A
:106C60000630FDF7ABFB0223ADF82830ADF82C3031
:106C700008AA05F120030DA9A888ADF82A40CDF88F
:106C8000208009960C97FFF7C1FE044638B97B684F
:106C9000AB62BB6803B1EB62054B01221A70204660
:106CA00015B0BDE8F08F0E24F9E700BFACBD0F00B2
:106CB000289A002070B5054686B070B302884FF65A
:106CC000FF739A422BD0174B1B7843B3164C1022FC
:106CD000080AE170207121FA02F0090E072301264B
:106CE0006071A17102A800216370ADF806302270B6
:106CF000A670FDF763FB2B8AADF808300023ADF8D2
:106D00000C3002A90DF1060328888DF80A6004935F
:106D10000594FFF77FFE06B070BD0E20FBE708204C
:106D2000F9E700BF289A0020299A002030B50546CF
:106D300087B060B302884FF6FF739A4229D0164B92
:106D40001B7833B3154C112323700B0A6170A370A9
:106D50000B0C090EE370217105230021102202A8FB
:106D6000ADF80630FDF72AFB2B8AADF80830012379
:106D70008DF80A300023ADF80C3002A90DF106039E
:106D8000288804930594FFF745FE07B030BD0E2018
:106D9000FBE70820F9E700BF289A0020299A002085
:106DA00030B5044687B038B300884FF6FF73984279
:106DB00024D0134B1B780BB3124D102369700321A1
:106DC000ADF80610AA7000211A4602A82B70FDF734
:106DD000F5FA238AADF8083001238DF80A30002334
:106DE000ADF80C3002A90DF1060320880493059537
:106DF000FFF710FE07B030BD0E20FBE70820F9E7D3
:106E0000289A0020299A002070B50D4688B00446C3
:106E100040B139B1826A2AB10B88112B5CD003D8FA
:106E2000102B46D008B070BD502B45D0512BF9D156
:106E30008B79022BF6D10A89038A9A42F2D18B7B95
:106E4000043B022BEED99DF8163043F001038DF878
:106E500016300B8AADF818304B8AADF81A3002267E
:106E600001F114030822002101A807938DF8106096
:106E7000FDF7A4FA002301AAA18A2088ADF80460D6
:106E8000ADF80630CDF808D0FFF7C2FD38B3E36A9D
:106E900003B1984740F2FD1304A92088ADF81430DF
:106EA000FFF7BAFD0028BDD0E36A002BBAD098479F
:106EB000B8E78B882380B5E7C98803899942B1D1A7
:106EC00008238DF81030123535F8023C8DF8183053
:106ED000059504A99047A5E74FF6FF73EAE79DF8EB
:106EE0000020D207D6D5ADF8140004A92088FFF7FA
:106EF00093FD0028D8D1297D4B1E072B41D8DFE810
:106F000003F0041A2327292B3E2D00238DF804308B
:106F10006B8A012B05D8062201212046FFF740FF8E
:106F2000C0E7012315358DF80C300295A36A01A93D
:106F30002046984776E76A8A01239A428DF8043002
:106F4000F0D806220221E8E702238DF80430EDE7AD
:106F50000323FAE70423F8E70523F6E76B8A022BFD
:106F600002D803220821D8E7AA7D6B7D43EA0223D9
:106F7000ADF808300BB90723E7E70623E5E7092357
:106F8000E3E70322C9E7A8DF7047AADF70470000E4
:106F90002DE9F04381468FB0154698460E4611B94B
:106FA000084600F08DFD15B9284600F089FD1C2229
:106FB0000DEB02000021FDF701FA9DF81C30ADF841
:106FC0000490002443F0020301272146032268466F
:106FD0008DF81C3008940A940B940C940D948DF841
:106FE0000670FDF7EBF998F800308DF8003098F84E
:106FF00001308DF801309DF8023067F3420303F051
:10700000E70364F300032146142202A88DF802303E
:10701000FDF7D4F90A48CDF80CD001AB029302AACF
:10702000169B0088ADF8105007A9ADF81240ADF8D6
:1070300014500696FFF7A9FF0FB0BDE8F08300BF1C
:10704000509A002030B587B006A941F60A030446DD
:1070500021F80C3D0120294A8DF80E00FFF793FF1F
:107060000546D8B92288E2B922894AB1244B009357
:10707000E16804F13C0342F62420FFF789FFD8B908
:10708000228C4AB11F4B0093616A04F13C0342F623
:107090002620FFF77DFF78B9A36B7BB9284607B0A0
:1070A00030BD194B0093616804F13C0342F629207E
:1070B000FFF76EFF0028D7D00546EFE71A788DF866
:1070C00010205A888DF81120120A8DF812209A8803
:1070D000DB888DF815301B0A8DF813208DF81630DB
:1070E000120A0A4B8DF814200093072204F13C0386
:1070F00004A942F65020FFF74BFFDDE7509A00202D
:10710000409A0020309A0020389A0020489A0020A7
:1071100029DF704728DF704737B50B460C465A68A1
:1071200014F80C1BDD680092044A5B6952F8255084
:1071300002462046A84703B030BD00BF549A002045
:1071400038B5184C2378182202FB03431A795D697D
:10715000012A03D0032A19D00F2038BD124A996999
:1071600010689A68DB680003121AB2F5805F1D444C
:10717000014438BF9208284428BF4FF48062FFF7CB
:10718000C7FF0028E9D10123A37038BD4FF0805319
:107190001869054B80B2B5FBF0F518682844FFF775
:1071A000B9FFEEE7649A00205C9B002070B5134D98
:1071B0006C780A2C1FD02E783444E4B2092C84BF9A
:1071C0000A3CE4B2182606FB0454A261207103C9EC
:1071D000A360049BE360AB7804F1100282E8030033
:1071E00023B100206B7801336B7070BDFFF7A8FFEF
:1071F0001128F7D1F5E7042070BD00BF649A002084
:10720000F8B527498B780C46002B48D00026022879
:107210008E7002D0032832D0F8BD0D78214A182193
:1072200001FB0541136889680133B1EB033F13602B
:107230001BD863781660013B63706B1CDBB21827A8
:107240000426092B17FB056188BFA5F1090321441A
:1072500000202370FFF760FF07FB054300221A712F
:107260009A601E615A619A61DA606378BBB1A37853
:10727000ABB9FFF765FF90B111280AD1F8BD0B78C3
:10728000182202FB031104310D20BDE8F840FFF77E
:1072900043BF2178182303FB01410431F5E7F8BD12
:1072A000649A00205C9B00200D4A002313600D4A65
:1072B000042013705370937002F1F0011371936006
:1072C000106153619361D36018328A42F6D1064A45
:1072D0001360064A0020136053609360D3607047C8
:1072E0005C9B0020649A0020589B0020549A002048
:1072F000074A1368042B1FBF0B60591C1160054A15
:107300001DBF016842F8231000201846704700BFD7
:10731000589B0020549A002013B5CC180C43A407A6
:1073200008D1009313460A4601460120FFF73EFFAD
:1073300002B010BD1020FBE707B500220B460092FB
:1073400001460320FFF732FF03B05DF804FB0000A5
:10735000094A537891780133DBB2994208BF002380
:10736000117899421FBF03705078182303FB002047
:1073700014BF043000207047609B0020082910B51E
:10738000044602D0002000F09BFB23686068BDE843
:107390001040184773B5054602A8002400F8014DB7
:1073A0000E4600F09BFB0DF10600FFF7D1FF90B1F8
:1073B00006700A4B9DF8062045605A709DF807003C
:1073C00000F0B0FB24B9064B4FF48012C3F8002143
:1073D000204602B070BD0424F0E700BF609B00208F
:1073E00000E100E0204B21491A682F2300BF00BFB5
:1073F00000BF00BF00BF00BF00BF00BF8A422FD048
:1074000000BF00BF00BF00BF00BF00BF00BF00BF84
:1074100000BF00BF00BF00BF00BF00BF00BF00BF74
:1074200000BF00BF00BF00BF00BF00BF00BF00BF64
:1074300000BF00BF00BF00BF00BF00BF00BF00BF54
:1074400000BF00BF00BF00BF00BF00BF00BF00BF44
:1074500000BF00BF00BF00BF00BF00BF00BF00BF34
:10746000013BC3D1704700BF388400200024F400E2
:107470000C4B0D484FF4003210B5C3F880200124A6
:107480004FF48033C0F84833C0F808334460FFF746
:10749000A9FF064B846000201860FFF7A3FF044B90
:1074A000187010BD00E100E0001001407C9C00203D
:1074B0006D9C00202DE9F3412549264B0025C1F89C
:1074C0004051C1F84451C1F84851C1F84C51C1F87C
:1074D0000051C1F804511B68002B34D0D1F8044589
:1074E0001D49DFF888800968641A24F07F442F461C
:1074F0001A68A24212D8A41A15441A7CDE6962B135
:107500005A691F7400929B6901934246082168469C
:1075100000F03EFA08B100F0D3FABEB90F4B104AA2
:10752000197813788B4205D10133DBB2022B08BFE7
:107530000023137012780B4B43F822500A4B4FF480
:107540008012C3F8002102B0BDE8F0813346CFE7D6
:1075500000100140809C00207C9C0020789C002032
:10756000799C0020709C002000E100E07D730F00FA
:107570002DE9F74F9C4A9D49137809789C4D994213
:1075800058D00133DBB2022B08BF00231370994996
:107590001278994B0F6853F822003B1823F07F4371
:1075A00000220B602B6814461646964613B942B16A
:1075B0002B6006E0196881422AD902B12B60091AB2
:1075C000196001272B688D4EDFF83CA201934FF024
:1075D0000008002C64D02046E469864BD0F804E013
:1075E0001A68AEEB020323F07F41854B9942836812
:1075F00000F2B5800B440360002343608360C361E5
:107600002B6801220274002B40F0B2802860E0E772
:10761000401A0E44D968C3F800E0D3F81CC031B159
:10762000BA1922F07F42DC615A6099601C466346B9
:107630000122BBE700242746C4E7531CB178DBB224
:10764000994233704FF0180303FB026208BF347095
:1076500013799068022B1BD0032B11D0012B1FD163
:10766000017CE9B9D3684360136983605369C360DF
:1076700093698361634B1B78002BAED04160ACE70C
:1076800000232C681A46002C65D14BB12C6007E012
:10769000D5F800B05B46D946002B57D100230374C0
:1076A000327873789342C8D1B8F1000F05D12B68B6
:1076B000019A9A4201D1002F42D02B68002B72D040
:1076C000D3F80090504C4B4BD4F8046518684F4FDA
:1076D000351A3B7825F07F4503359BB94FF480334D
:1076E000C4F84433C4F80433494B4FF400324FF02C
:1076F0000108C3F880211A60C4F80080FFF772FE09
:1077000087F80080A9452CBF4844401920F07F40ED
:10771000C4F84005D4F804359B1B23F07F43801B3D
:10772000033320F07F4083420AD9D4F80435C4F8EB
:107730004035FFF757FE364B4FF40032C3F80021B7
:10774000304B00221A7003B0BDE8F08F98422DD064
:107750009946DB69A0E722740123E46993E7A2EB71
:107760000E0222F07F429A4234BF9B1A002342E766
:10777000026819688A420BD88A1A1A60C36145E701
:10778000521AD9699E4661B90260C161D86120E789
:107790009E4619689142F3D3891A196019467346B7
:1077A000F2E70B46F5E7FFF763FEC9E748450CD162
:1077B000DBF81C302B6043B90E490122CAF80820BF
:1077C0000B60104B1A70FFF70DFEC2690368C9F811
:1077D0001C2012B111680B4413602B689B4518BF25
:1077E0004FF001085AE700BF789C0020799C0020E8
:1077F000809C00207C9C0020709C0020609B0020CE
:10780000FEFF7F006C9C0020001001406D9C00205A
:1078100000E100E008B5FFF72BFE114B00200B2222
:1078200018709A7058700F4B18600F4B18700F4BF0
:1078300018700F4B4FF48012E021C3F8802183F8B9
:1078400014131A6002F18042A2F56F22C2F80805F3
:1078500083F81113074BD2F804251A6008BD00BF46
:10786000609B0020809C0020789C0020799C002058
:1078700000E100E07C9C0020074B9B784BB132B1CB
:1078800028B10368187C20B959745A6170470720E1
:1078900070470820704700BF609B00202DE9F74328
:1078A0001E4FBB7805460E469046ABB3A0B30429E5
:1078B00030D9436983B3437C02A80024012B00F82C
:1078C000014D0CBF8946A14600F008F90DF10600F4
:1078D000FFF73EFDE0B101230370114B4560D3F883
:1078E000043583609DF80630C660C0F81090C0F87B
:1078F00014807B709DF8070000F014F924B9094B3F
:107900004FF48012C3F80021204603B0BDE8F08395
:107910000424EFE70724F7E70824F5E7609B00203D
:107920000010014000E100E0064A92783AB130B11F
:10793000426922B1002202740221FFF72BBD082008
:10794000704700BF609B002012F0030310B511D1F7
:10795000094C22604C1CE400A4B22244074C226073
:10796000074A1370074A1370074A1080074A1180AC
:10797000184610BD072010BD8C9C0020889C00205C
:10798000849C0020949C0020909C0020929C0020CD
:107990002DE9F3472B4D2B888B4206460C461746A4
:1079A0004BD302A84FF0000800F8018D00F096F8C4
:1079B000254B264A18781178CBB2254909888B4285
:1079C00038BF0133C0B238BF5FFA83F840452ED0CC
:1079D00092F800801378DBB2994286BF0133DBB2A4
:1079E000002313709DF8070000F09CF84FF6FF731A
:1079F000984524D0DFF860A0DAF800304FEAC809D3
:107A000003EB090243F83870A6B19CB1114B2888EA
:107A10001B68224608FB0030314603F077F8DAF89D
:107A200000304B4400209C8002B0BDE8F0874FF648
:107A3000FF78D7E700209080F6E70920F4E70420DC
:107A4000F2E700BF909C0020949C0020849C0020C2
:107A5000929C0020889C00208C9C0020F8B5124C41
:107A6000124D264622782B789A4200D1F8BD237811
:107A70000F48104A078812680F48DBB219B202EBB0
:107A8000C10E006852F83120BEF8041003FB070055
:107A900090470A4A23781288DBB29A4286BF0133A4
:107AA000DBB200233370DDE7949C0020849C00202F
:107AB000909C00208C9C0020889C0020929C0020A0
:107AC0001FB50021039001AA44F20100ADF8041093
:107AD0000291FCF705FE05B05DF804FB70B5EFF30D
:107AE000108672B60C4A946801239CB993600B4BC4
:107AF0000B4DD3F8801029401160C3F88050D3F8A3
:107B0000841051604FF0FF32C3F88420047006B92E
:107B100062B670BD0370FAE714CD002000E100E00A
:107B2000FC06FFBD10B5084B9A685AB150B9EFF387
:107B3000108272B605491C680C605C684C609860E5
:107B400002B962B610BD00BF14CD002000E100E014
:107B50002AB113880144884204D1184670474FF671
:107B6000FF73F7E710F8012B5BBA9BB25340C3F3E6
:107B70000312534083EA03331BB25A0102F4FF524B
:107B800053409BB2E7E70000064B074A00201870FD
:107B9000064B1A6008225A609860D86018615861D4
:107BA00098617047959C0020989C002078AF002039
:107BB0000020704730B5F9B1124B5C6800220A60B2
:107BC000E4B1B0F5167F1BD8D8681D680130013CC0
:107BD000D86018695C604FF4177404FB00540C60A3
:107BE000012101FA00F499690130214300F00700F6
:107BF00018619961104630BD0E2030BD042030BDA3
:107C00000C2030BD78AF00202DE9F0411E4B9A6862
:107C1000BAB359691D688C1A04F007073C464FF443
:107C2000177606FB045E70451ED1012101FA04F0AF
:107C3000996941409961002021465E68D3F818C0D7
:107C40004FF0010841440025164401F0070108FAED
:107C500007F414EA0C0FA6EB020E0CD095B19A6053
:107C6000C3F804E0BDE8F081013404F00704A14248
:107C7000D7D11020E1E7002AF0D0013A0F460125C4
:107C8000E5E70420BDE8F08178AF0020064A1369DB
:107C90001268013B4FF4177103F0070301FB032344
:107CA000C3F858020020704778AF002030B5C0B14B
:107CB000B9B10E4BDA68B2B1013ADA609A681D6860
:107CC00001329A605A694FF4177404FB025401326E
:107CD000046002F00702D4F858025A6108600020DC
:107CE00030BD0E2030BD042030BD00BF78AF002075
:107CF00030B50B49086885B078B10A4B1C6864B18F
:107D0000094A0390002315688DF804300B60136056
:107D1000029504AB13E90700A04705B030BD00BFD2
:107D20009CAF0020A0AF0020ACAF0020DC2810B535
:107D300009D0DD2810D0C02816D1FFF7D9FF0E4B8F
:107D40000E4A1A6010BD0E4A0E4B19681368581C73
:107D50001060C022CA54F2E7094A0A4B1968136836
:107D6000581C1060DB22F5E7064B054A19681368BA
:107D70005C1C1460C854E2E7448400209D7D0F0021
:107D80009CAF0020ACAF0020C02802BF014B024ACC
:107D90001A607047448400209D7D0F00C02810B4F5
:107DA00009D0DB280BD0094B094A196813685C1C01
:107DB0001460C85406E05DF8044BFFF799BF054B0B
:107DC000054A1A605DF8044B704700BFACAF002055
:107DD0009CAF0020448400202D7D0F0007B502A930
:107DE000012201F8010D002002F0F4F800280CBF78
:107DF0000420002003B05DF804FB000010B5064A23
:107E0000064C12682368D05CFFF7E8FF10B92368BE
:107E10000133236010BD00BFB0AF0020A4AF00202D
:107E200008B5C020FFF7DAFF28B9034B1B6813B968
:107E3000024B034A1A6008BDA4AF0020488400200A
:107E4000FD7D0F0008B5DB20FFF7C8FF10B9024B1E
:107E5000024A1A6008BD00BF48840020617E0F00FE
:107E600010B50C4A0C4C12682368D35CC02B03D0AD
:107E7000DB2B0DD0042010BDDC20FFF7AFFF002866
:107E8000F9D12368054A01332360054B1A6010BD00
:107E9000DD20F2E7B0AF0020A4AF0020FD7D0F0091
:107EA000488400207FB5174C174D184E002002F073
:107EB00073F820B122685AB9154B1B68B3B904B0E6
:107EC00070BD9DF80400134BC0B21B689847EDE7E6
:107ED000336829689942EFD2012201A9002002F0FB
:107EE00065F80028EDD14FF0FF30ECE70292064A2A
:107EF0000221126803928DF8041004AA12E9070007
:107F00009847DCE7ACAF00209CAF002098AF002082
:107F1000A0AF002044840020014B1860002070476F
:107F2000A0AF0020034B1A780AB901221A70002072
:107F3000704700BF94AF0020014B002018707047BD
:107F400094AF00202DE9F04F85B000284FD0294F85
:107F50003B78012B07D0022B0CBF042508252846AF
:107F600005B0BDE8F08F244C244A254E254DDFF89E
:107F7000A0A0DFF8A0B011600023236002233B70B3
:107F8000214B30602B60914698462268D9F800302A
:107F90009A4215D3C5F80080FFF742FF054608BB9B
:107FA0001A4B1B6801223A70E3B18DF80420326845
:107FB00002922268039204AA12E907009847CEE7CA
:107FC000336822689A5CC02A03D022689B5CDB2B52
:107FD00004D12B68534508BFC5F800B02B689847FB
:107FE000042801D10025BAE71128CED1FAE71025DF
:107FF000B5E700BF94AF0020A4AF0020A8AF0020D9
:10800000B0AF002048840020217E0F00A0AF0020E8
:10801000FD7D0F00457E0F00054B064A1860064B9C
:108020001960064B00201860054B1A60704700BFAE
:10803000ACAF0020897D0F0098AF00209CAF0020DE
:1080400044840020064B07481B68DB00DBB200229B
:10805000037004215B4242708270C370FFF772BFED
:10806000DCAF0020B4AF002070B52C4C2C4E024683
:1080700025462378012B14D002D3022B20D070BDCB
:10808000002A4AD12748FFF74FFC08B1FFF718FD37
:10809000254B1B68002B40D0244ABDE87040107867
:1080A0001847012A39D13168214B06311868FFF78A
:1080B00049FF08B1FFF704FD02232B700022D8E727
:1080C000022A17D0032A0CD03ABB1A4B15481A6063
:1080D00041F67F21FFF7E2FBF8B1BDE87040FFF702
:1080E000EFBC154A1368013303F007031360002344
:1080F0002370E3E70F4A1368052B0AD0013313609E
:10810000074B19680A4B06311868BDE87040FFF745
:1081100019BF064B01221A70E9E770BD00B00020BC
:10812000F4AF0020B8AF0020F0AF0020F8AF00207F
:1081300008B00020FCAF0020E0AF0020F0B585B013
:1081400004AB03E907009DF80400032800F28F80C8
:10815000DFE800F00802898C012005B0BDE8F0409E
:10816000FFF782BF039E544C032E68D9029D6B78A3
:1081700013F00F024CD00E2A61D1042E7CD02A7845
:10818000500679D5110677D51A44AB781A44EB78A6
:108190001A4412F0FF026FD1B71E39462846FFF786
:1081A000D7FCEB195A78EB5D43EA0223984263D17E
:1081B00042492A780B6802F00702D8B282421AD1EB
:1081C000013303F007030B60FFF73CFF3C4B012238
:1081D00030461A70FFF75AFD08B1FFF771FC3649B7
:1081E0004FF41670FFF7E6FC002851D0042847D161
:1081F000344805214FE04FF416712068FFF70CFF5B
:1082000008B1FFF75DFC05B0BDE8F040FFF71ABF0D
:108210002978AA780B441344EA78134413F0FF0337
:108220000DD1294A12680132C1F3C20102F00702DE
:10823000914204D1254A03201370FFF715FF2568EA
:1082400035B14FF416712846FFF7E6FE70B30EE025
:1082500019494FF41670FFF7ADFC48B3042813D149
:1082600018480521F0E705211648EDE7032005B081
:10827000BDE8F040FFF724BC4FF416712068E3E737
:108280000020FFF71DFCB3E72846FFF719FCE7E7DE
:1082900020684FF41671FFF7BFFE08B1FFF710FC1E
:1082A0000B4B1B6813B14FF00000984705B0F0BDB1
:1082B00020684FF41671C7E704B00020DCAF00203F
:1082C000D8AF0020E4AF0020E0AF0020F8AF0020DE
:1082D000ECAF00200220FFF7C7BE0000074B10B52F
:1082E000044618600648FFF717FE08B1FFF7E8FBE1
:1082F000002C0CBF0E20002010BD00BFECAF0020F2
:108300003D810F00174A1848002310B51360174A23
:108310001360174A1360174A1370174A1370174BEC
:10832000174A01211960174B1960174B1970FFF795
:10833000A3FA08B1032010BDFFF726FC88B9FFF7A8
:10834000F1FD70B9114C4FF416702146FFF732FC65
:108350000028EFD120684FF41671BDE81040FFF7F8
:108360005BBE10BD08B00020BCBD0F00F4AF002004
:10837000FCAF0020D8AF002000B00020DCAF002010
:10838000D5820F00E0AF0020F8AF002004B000203D
:108390000C4A08B5002313600B4A1360FFF708FC72
:1083A00008B1FFF78DFBFFF7C7FD08B1FFF788FBAA
:1083B0000648FFF7B9FA042802D10020FFF780FB36
:1083C000002008BDF0AF0020ECAF0020B8AF0020C7
:1083D00037B50D46044698B191B10A4B1978002281
:1083E000019259B101A91A70FFF760FC019B063B8D
:1083F0002B8023680433236003B030BD0420FBE7E7
:108400000E20F9E7D8AF00200438FFF7FDBB0000CD
:10841000004870474C840020044B054A1878054BEF
:10842000002814BF10461846704700BF0CB000204B
:1084300024BE0F00C2BD0F00074B187020B1074BC0
:108440002A229A720022DA724FF0805304495A6E3F
:1084500004481B6E02F07ABC0CB000204C84002053
:1084600082BE0F0090B0002010B570B9134B1448B5
:108470001968022202F04AFB0120431C114A5B00EA
:1084800043F440731380104610BD052814D80B4BDD
:1084900053F82040204602F013FDC0B21F280949BE
:1084A00028BF1F202246131BDBB29842E5D912F8E1
:1084B000013B21F8023FF6E7002010BD6084002058
:1084C00010B000200EB000204DDF70474EDF704727
:1084D0004FDF704750DF704712DF7047002000F019
:1084E0000FBD00001FB5244B402283F82723002333
:1084F0008DF8073043F2040304461A681F4B9A4272
:1085000003D10DF10700FFF7E7FF9DF8073003B334
:108510000120FFF7DBFF0120FFF7D6FF0120FFF767
:10852000D7FF02A8FFF7D6FF029BDA0702D500208B
:1085300000F01CFE029B9B0702D5022000F016FEF5
:108540002046FFF779FF00F007F902F075FA04B052
:1085500010BD04A800F80C3DFCF71AFD04A8084B58
:1085600040F8043DFCF73CFDFCF744FD4FF0804330
:10857000D3F838340293D7E700E100E0DBE5B151EE
:108580006D910F00012000F0F1BD0120FCF7B2BC9D
:108590000220FCF7AFBC18DF70470000F0B5164CA6
:1085A00087B020680F466168164603AA03C21349C4
:1085B0001D460868237A4968137001AA104B00937E
:1085C00003C203A802F07CFC03A90246384602F06D
:1085D0009DFA01A802F074FC01A90246304602F09F
:1085E00095FA684602F06CFC69460246284602F09D
:1085F0008DFA07B0F0BD00BF8DBE0F007ABE0F0030
:10860000312E30000120704710B51C460B781E2B10
:1086100006D000232022052101F010FF204610BDC6
:108620000024FBE7F8B5069E14460D4632460021AD
:1086300018461F46FBF7C2FE6CB10A4B1B68DB07EE
:1086400000D500BE4FF0FF30F8BD284600F0E2F83C
:10865000013504F50074B44207EB0401F5D320465C
:10866000F8BD00BFF0ED00E0F8B50A4E0D461F461C
:108670000024069B9C4207EB040101D32046F8BD71
:108680003246284600F098F90028F7D0013504F565
:108690000074EEE7A4B0002030B5284C227A8DB0EB
:1086A0009AB107AC142200212046FBF787FE06256D
:1086B0000B9B8DF81C50009394E80F00FCF7F8FE1C
:1086C0000620FCF717FC0DB030BD2368002BFAD054
:1086D0001B4B197819B105201A70FCF70BFC626866
:1086E00023689A42EFD307AD142200212846FBF7F6
:1086F00065FE637AF3B106234FF420424FF47421F0
:108700004FF423208DF81C3002F0D0F968B110220C
:10871000002103A8FBF752FE4FF42323049303A880
:108720004FF420530593FFF736FF0B9B009395E81A
:108730000F00C3E78DF81C30F7E700BFA4B000209E
:1087400078840020024B0B604FF400731380704755
:108750000901010001207047F7B51F491F481F4F4D
:1087600002F01AFB43F204031A681D4B9A422DD102
:108770004FF440531B78102B25D943F21002142BD1
:10878000156821D943F214031C68144802F098FBC1
:108790004FF47A721349B4FBF2F602FB1646B4FBAF
:1087A000F1F3019601FB13413844B1FBF2F12A4683
:1087B00000910D4902F0CAFA0C49084803B0BDE81F
:1087C000F04002F0E9BA00250024DEE70849384607
:1087D00002F0E2FAF0E700BF70BF0F0079840020DA
:1087E000DBE5B15140420F007DBF0F00A4BF0F0079
:1087F00098BF0F0030B5034620251C1AA24200DCAA
:1088000030BD0C781CB101311C700133F5E71D70CF
:10881000FBE700002DE9F0410C4605464FF40072DD
:1088200000212046FBF7CAFD65B93E225B49204680
:1088300002F06CF9552384F8FE31AA2384F8FF3145
:10884000BDE8F081B5F5017F2BD86B1EB3F5817FB4
:1088500024BF6FF481702B18C3B11B0203F5807025
:10886000A4EB430440F6C3251A1FB2F52C6F03F1A5
:10887000010206D2AB4214BF91B24FF6FF7124F849
:10888000131082421346EFD1BDE8F081F822227026
:1088900004F109012246FF2002F8010F8A42FBD1B0
:1088A000DBE7B5F5027F3BD86FF401710D443DB9AC
:1088B00020460B223A49FFF79DFF2823E37220341C
:1088C000384B2E01002703EB05256FF04908022ED7
:1088D00001D9BDE8F0810B2229462046FFF78AFF27
:1088E00051234A2248216374E3746376B31C67738F
:1088F00084F80E80E1732274A2742775677584F87A
:108900001680E17522766383E86830B102F0D8FA08
:10891000E061013620341035D9E74FF4AC10F7E7A9
:10892000214B9D4237D86FF40272AA18012A0DD844
:108930001C4B03EB0213DD68284602F0C1FA2946FE
:1089400002462046BDE8F04102F0E0B86FF4FD7346
:10895000E9180902B1F5801F1DD2144B236003F101
:10896000144303F52C1303F602336360104BC4F871
:10897000FC314FF42C63A3614FF40053A5F20B2597
:108980004FF48072A3600B4B6561E1602261E3618B
:1089900004F12000D6E7BDE8F08100BF96BE0F00CD
:1089A000C1BE0F0040BF0F00080101005546320A4A
:1089B000306FB10A29009A23F7B56A4B15460A6849
:1089C0009A420C4620D103F114434A6803F52C1354
:1089D00003F602339A4217D1D1F8FC21624B9A4236
:1089E00012D18B6823F4FF5323F01E039B049B0CCE
:1089F000B3F5005F08D10B69B3F5807F04D1C86877
:108A000010F0FF0F00F093804FF0FF3007E0B0F55B
:108A1000805FF9D2A369002B58D14FF4007003B0E6
:108A2000F0BD01266E72E368B3F1102F18D1042255
:108A300004F13401684602F069F8042204F13801B7
:108A40000DEB020002F062F8009BB3F5742F03D126
:108A5000019BB3F57E2F01D02E72D5E7AE72D9E718
:108A6000A3F57422B2F5204F2AD2EE7A04F1200742
:108A7000EEB93E4A93421AD323699E4217D206F1B9
:108A8000200104222144684602F040F8009BD02BCC
:108A900014D10422311D0DEB0200394402F036F8E6
:108AA000334B019A9A424FF001030DD1EB72E0680B
:108AB000226901233946A0F5A2204FE00836DBE702
:108AC000B3F5805FA6D301232B729DE72A689342FA
:108AD00007D041F263018B4200D80AB14FF0FF3357
:108AE0002B60626941F263039A4296D802F0070153
:108AF00005EBD20201238B40117BDBB20B4204D188
:108B00000B4313736B6801336B606A682B689A427E
:108B100083D30120FCF70AF86B7A002B3FF47DAF7A
:108B2000AB7A002B7FF479AF01232B7275E7CB6909
:108B3000104A934207D0104A93423FF472AF0C4A56
:108B400093427FF461AFA0F58053B3F52C2FBFF4AF
:108B50005EAF01234FF4807204F12001FCF704F8AA
:108B600058E700BF5546320A306FB10A00D80F00EF
:108B700029009A234028A5AD3C8263D6064B18688D
:108B8000082804D104331B680BB101207047A0F101
:108B90000D035842584170473001001042DF7047C2
:108BA00043DF704744DF704712DF7047064B93F88E
:108BB000C0202AB9054B1B68DB0704D500BE7047EF
:108BC000002283F8C0207047C0B20020F0ED00E022
:108BD00007B543F204031A68094B9A424FF00003A9
:108BE0000CD102A800F8013DFFF7DEFF9DF8070059
:108BF000003018BF012003B05DF804FB1846FAE707
:108C0000DBE5B15107B5FFF7E3FF48B101A8FFF776
:108C1000C9FF0198003018BF012003B05DF804FBC4
:108C20004FF08043D3F80C0400F00110A0F10113C1
:108C300058425841F1E700000D4B93F8C02001461F
:108C400062B10C4A5268C2F308021AB101220A4802
:108C500000F03ABD93F8C020002AFBD1012283F82E
:108C6000C0200A60BFF36F8FBFF34F8F704700BF04
:108C7000C0B2002000ED00E0398C0F00F8B5104DB7
:108C8000104E00F59473182455F8233044431422F1
:108C900002FB0052DDB20C4B3159C2F8001703EB56
:108CA0008000C2F80457FFF7C7FF335937192B4428
:108CB0003351FB8815FA83F39BB2FB80F8BD00BFEC
:108CC00000700240C0B200202870024010B4104B67
:108CD000182101FB00314A8A0B8ACC689B1A0A7D55
:108CE0009BB2934228BF13461422424302F18042B2
:108CF00002F51C32C2F80046C2F804362344CB60A9
:108D0000044B5DF8044B03EB8000FFF795BF00BFF9
:108D1000C0B2002004700240024B0122C3F80425B7
:108D2000704700BF0070024070470000014B802276
:108D30005A60704700E100E0024B8022C3F88420B3
:108D4000704700BF00E100E0074BD3F80024D3F8E0
:108D500000140A43C3F800240022C3F858214FF43A
:108D60008002C3F8042370470070024030B58B784E
:108D7000097903F07F0018245BB2DA0F44430C2515
:108D800005FB0244124A2244002B11724FF00103EA
:108D9000104A10DB411903FA01F1C2F80413D2F8AA
:108DA000141583400B43C2F81435BFF36F8FBFF324
:108DB0004F8F012030BD811C03FA01F1C2F804136A
:108DC000D2F8101583400B43C2F81035EDE700BF11
:108DD000C0B2002000700240F7B51E464FFA81FE77
:108DE000182301F07F00234C0F464FEADE7503FB8A
:108DF00000F10C2303FB0513E118E25000238E80E1
:108E0000CB80B0B9AEB91C4BD3F88034C3F3C013D8
:108E10009D420ED01948FFF70FFFFFF7C7FE0096DF
:108E2000334632463946304600F002FC012003B09A
:108E3000F0BDBEF1000F1ADB182343430C2202FBE6
:108E400005352C44637A03F0FF0213B1FFF716FFD8
:108E5000ECE7094B30B90122DA64BFF36F8FBFF33F
:108E60004F8FE3E700F5947043F82020F5E7FFF714
:108E70002DFFDBE7C0B200200070024050700240BE
:108E800011F07F0F064B0BBF012241F480715A6530
:108E9000C3F81815BFF36F8FBFF34F8F704700BF34
:108EA000007002404B060AD0054BC3F8181541F478
:108EB0008071C3F80C15BFF36F8FBFF34F8F7047EE
:108EC0000070024010B500221146930003F1804368
:108ED00003F51C330132082A59609962F5D1064B1B
:108EE000064C5962C422996420460021FBF766FAB9
:108EF00040232375237210BD00700240C0B20020D1
:108F00002DE9F04F944B954ED3F80003002385B024
:108F10001C4601251F4605FA03F108420CD09A1998
:108F20009200D2F800E0BEF1000F05D00C431760AC
:108F3000BFF36F8FBFF34F8F0133192BEBD1E107D5
:108F400006D5FFF7BFFF01221146002000F04AFBC3
:108F5000A20204D501220321002000F043FB63029A
:108F600017D57D4ED6F8005405F44073EF05C6F8CA
:108F7000003407D501220421002000F033FB012337
:108F8000C6F82C35AD0504D501220521002000F0DE
:108F900029FB734B23400BB1FFF708FE20022BD5B2
:108FA0006D4BD3F88014C9B28DF80810D3F884241F
:108FB000D2B28DF80920D3F888048DF80A00D3F8CE
:108FC0008C048DF80B00D3F890048DF80C00D3F8C6
